:100000005BC3000075C3000073C3000071C3000030
:100010006FC300006DC300006BC3000069C3000024
:1000200067C3000065C3000063C3000061C3000034
:100030005FC300005DC300005BC3000059C3000044
:1000400057C3000055C3000053C3000051C3000054
:100050004FC300004DC300000C94F01049C30000D2
:1000600047C3000045C3000043C3000041C3000074
:100070003FC300003DC300003BC3000039C3000084
:1000800037C3000035C300000C94AC1031C300002E
:100090002FC300002DC300002BC3000029C30000A4
:1000A00027C3000025C3000023C3000021C30000B4
:1000B0001FC300001DC300001BC3000019C30000C4
:1000C00017C3000015C3000013C3000011C30000D4
:1000D0000FC300000DC300000BC3000009C30000E4
:1000E00007C3000005C3000003C3000001C30000F4
:1000F000FFC20000FDC20000FBC20000F9C2000008
:10010000F7C20000F5C20000F3C20000F1C2000017
:10011000EFC20000EDC20000EBC20000E9C2000027
:10012000E7C20000E5C20000E3C20000E1C2000037
:10013000DFC20000DDC20000DBC20000D9C2000047
:10014000D7C20000D5C20000D3C200000C94AA118F
:10015000CFC20000CDC20000CBC20000C9C2000067
:10016000C7C20000C5C20000C3C20000C1C2000077
:10017000BFC20000BDC20000BBC20000B9C2000087
:10018000B7C20000B5C20000B3C20000B1C2000097
:10019000AFC20000ADC20000ABC20000A9C20000A7
:1001A000A7C20000A5C20000A3C20000A1C20000B7
:1001B0009FC200009DC200009BC2000099C20000C7
:1001C00097C2000095C2000093C2000091C20000D7
:1001D0008FC200008DC200008BC2000089C20000E7
:1001E00087C2000085C2000083C2000081C20000F7
:1001F0007FC200000C94481F7BC20000AB0DAB0D0A
:10020000930D9C0DB50D690D830D860D7D0D6E1240
:10021000FA1103120A12181223124812C2115612AE
:100220005D126412C613C613DA139514EC130A1484
:100230008A13AE13AE13AE13531A201ABF19201A25
:10024000BF190E1AF019BF19E719D0191C034C0079
:1002500055004600410020004300440043002000B8
:10026000440065006D006F00000018034400650045
:1002700061006E002000430061006D0065007200A7
:10028000610000000403090409023E00020100C0ED
:1002900032090400000102020100052400100104DB
:1002A0002402060524060001070582030800FF0951
:1002B000040100020A0000000705040210000507FF
:1002C0000583021000051201100102000008EB0373
:1002D000442001000102DC01004E4F4E45000000A9
:1002E0000000000000000000006504660467046868
:1002F0000469046A046D046E0400000001014D46A7
:100300005F434C41535349435F314B000000881217
:10031000BF123A135413581359132C1732170004F1
:100320000400024D465F434C41535349435F344BF5
:100330000000008812BF1247135413581359132C8E
:10034000173217001004004E4F4E45000000000009
:10035000000000000000000000000000000000009D
:10036000000000000000005549445F52414E444FD8
:100370004D00000000000000000000000000000030
:10038000000000000000005549445F4C4546545FA2
:10039000494E4352454D454E5400000000000000B8
:1003A000000000000000005549445F52494748548E
:1003B0005F494E4352454D454E5400000000000039
:1003C000000000000000005549445F4C4546545F62
:1003D00044454352454D454E540000000000000086
:1003E000000000000000005549445F52494748544E
:1003F0005F44454352454D454E5400000000000007
:10040000000000000000004359434C455F53455431
:1004100054494E4753000000000000000000000057
:1004200000000000000000253575206D5600257580
:100430000025750052414E444F4D0025730043681E
:10044000616D656C656F6E2D4D696E692025532059
:100450007573696E67204C55464120255320636FA4
:100460006D70696C65642077697468204156522DFF
:100470004743432025530031343035303600313383
:100480003039303100342E382E31000D0A000D0A7B
:1004900000643130303A4F4B000000000000000093
:1004A000000000000000000000000000000000004C
:1004B0000000653130313A4F4B20574954482054A1
:1004C000455854000000000000000000000000003B
:1004D0000000006E3131303A57414954494E4720AF
:1004E000464F5220584D4F44454D0000000000003B
:1004F00000000000C83230303A554E4B4E4F574E38
:1005000020434F4D4D414E440000000000000000CC
:100510000000000000C93230313A494E56414C4982
:100520004420434F4D4D414E4420555341474500D3
:10053000000000000000CA3230323A494E56414CA9
:10054000494420504152414D45544552000000005D
:100550000000000000000056455253494F4E000075
:1005600000000000000000000000005F0B434F4E41
:10057000464947000000000000000000009B0B936C
:100580000B7D0B55494400000000000000000000F6
:100590000000000000C90BA00B524541444F4E4CD7
:1005A00059000000000000000000002B0C190C5541
:1005B000504C4F4144000000000000000000003F8C
:1005C0000C00000000444F574E4C4F4144000000C7
:1005D0000000000000440C00000000524553455448
:1005E0000000000000000000000000490C000000B6
:1005F00000555047524144450000000000000000F3
:1006000000540C000000004D454D53495A45000070
:1006100000000000000000000000005F0C5549448D
:1006200053495A450000000000000000000000008F
:1006300000770C425554544F4E000000000000005B
:100640000000008D0C970C920C53455454494E47B2
:100650000000000000000000000000A40C9F0C43FC
:100660004C4541520000000000000000000000ACBA
:100670000C0000000048454C500000000000000045
:100680000000000000AF0C0000000052535349006E
:10069000000000000000000000000000000000F961
:1006A0000C0000000000000000000000000000003E
:1006B000000000000000000011241FBECFEFCDBFDE
:1006C000DFE2DEBF10E2A0E0B0E2E4E2FBE402C061
:1006D00005900D92A239B107D9F726E2A2E9B0E25E
:1006E00001C01D92AD39B207E1F703D00C949025FB
:1006F00075C07AD0B1D680E38093010631D20AD199
:100700006AD785D13BD581E0809300021092010227
:1007100092E09093020293E090930402809320026F
:1007200088E380932102CBD0C1E05AD7E091EB203F
:10073000F091EC200995E091F120F091F2200995DB
:1007400080910C0A80FFF1CFC0930C0A74D167D757
:100750001CD5809193208093060610929320E5CFBC
:10076000292F33272230310529F12330310599F023
:100770002130310541F080E090E020E030E0FA01E6
:1007800020833183089582E190E026EC32E0FA0183
:1007900020833183089599278130910599F0823023
:1007A0009105B1F0892B39F7E4E8F2E0849190E00B
:1007B0009F01E5CF8EE390E028E832E0FA01208344
:1007C00031830895EAE6F2E0849190E09F01D7CF6B
:1007D000ECE4F2E0849190E09F01D1CF1F920F9260
:1007E0000FB60F921124FFCF8091780083FF0AC0CB
:1007F00088E08093780088ED84BF81E0809380005A
:10080000FD95FEC0809150008660809350008091DD
:10081000510081FFFCCF8091510082FFFCCF1092EC
:10082000560021E02093600088ED84BF20934000B3
:1008300083ED90E38093260A9093270A86E08093C5
:10084000000A20934300209300048091CC0188602B
:100850008093CC01089588ED84BF81E0E8E7F0E063
:100860008183089588ED84BF8BE180938000089593
:100870008BEC8093520080915000886080935000F0
:100880008091510083FFFCCF84EC809355008091D0
:1008900050008061809350008091510084FFFCCF14
:1008A0000895E0E4F0E084818E7F8483E0E5F0E069
:1008B00080818F7E80838081877F8083089587E019
:1008C000E0EAF0E082837894089508950895089509
:1008D0000895089580E090E0089508950895E091C6
:1008E000FE20F091FF20818395E2899FB0011124C1
:1008F00068527D4F45E250E088ED90E20E942A2246
:10090000E091ED20F091EE200995E091E920F09141
:10091000EA200994E091FE20F091FF208181DFCF51
:100920000F931F93CF93DF9349ED52E010E0BC018A
:100930006F5F7F4F9A01FA01C491C1110FC0EC01A2
:100940002881222311F11F5F4B5D5F4F133091F718
:1009500080E0DF91CF911F910F910895DC01FC9110
:10096000FF2389F3CF13EFCFDB0105C0FD91FF23F8
:1009700051F3F013E8CF2F5F3F4FED01F9010491E0
:100980000111F4CF28812111DECF812FA8DF81E072
:10099000DF91CF911F910F9108950F931F93CF93E4
:1009A000DF936150710949ED52E01CE29A01FA01AE
:1009B0000491002351F16131710520F426C06031AA
:1009C000710561F0DC010196EC010C932F5F3F4F44
:1009D00061507109F90104910111F1CFF3E0433243
:1009E0005F0731F41882DF91CF911F910F91089525
:1009F000CE0101961883615071094B5D5F4F23E072
:100A00004834520799F6EC01EDCFEC01E7CF089599
:100A10000C941C2208951F93CF93DF93662339F023
:100A2000EC01162F0E941C2289931150D9F7DF91F7
:100A3000CF911F9108950E941C220E941C220E94A7
:100A40001C220C941C22CF93DF93DC0161507109AE
:100A500021153105A9F16230710590F1FA0121509B
:100A60003109240F351F80E090E017C0D05DDC9382
:100A7000CF704C2F50E04A30510504F5C05D1196FF
:100A8000CC9311971296625071090296E217F30700
:100A9000C9F0319662307105A8F0C081DC2FD29583
:100AA000DF704D2F50E04A30510504F3D95CDC93E0
:100AB000CF704C2F50E04A30510504F3C95CDFCFB2
:100AC00080E090E01C92DF91CF910895DC01FA0163
:100AD0008081882309F441C091819923D9F120E0D4
:100AE00030E061157105A1F433C08295807F9134A7
:100AF00030F5942F892B8D932F5F3F4F3296808155
:100B0000882331F19181992329F16217730701F14B
:100B100040ED480F4A3020F04FEB480F4630D0F4FC
:100B200040ED490F4A3020F05FEB590F563090F4FA
:100B30008134D8F28295807F80579134D0F29753D8
:100B4000892B8D932F5F3F4F329680818111DACFB1
:100B5000C901089580E090E0089520E030E0F8CFEA
:100B6000CF93DF9300D000D0CDB7DEB780E1809384
:100B700065069AE1909361061092A6091092A70962
:100B800093EC9093A50998E19093A409809366064D
:100B900087ED8093A0098091A10986FFFCCF80E4B6
:100BA0008093A1098091A0091092A0098091A109C8
:100BB00086FFFCCF80E48093A1098091A00990E199
:100BC0009093650680FD3EC08DE389838AE28A8327
:100BD00080E88B8386EA8C8320E137ED90E42093D4
:100BE00066063093A0098091A10986FFFCCF9093FF
:100BF000A1098091A0091092A0098091A10986FF06
:100C0000FCCF9093A1098091A0092093650687FFEE
:100C1000E6CF80E180936606FE013196CE0105960F
:100C200030E421912093A0092091A10926FFFCCF57
:100C30003093A1092091A009E817F90791F780E105
:100C4000809365062496CDBFDEBFDF91CF910895D6
:100C5000CF92DF92EF92FF920F931F930091FD20AE
:100C600010E020E030E0980111270027060F171F41
:100C7000211D311DE0E1F7ED70E4E0936606F0938D
:100C8000A0096091A10966FFFCCF7093A109609152
:100C9000A0091092A0096091A10966FFFCCF709392
:100CA000A1096091A009E093650667FFE6CF60E1C6
:100CB0006093660663E06093A0096091A10966FFF6
:100CC000FCCF60E46093A1096091A0096901EE2462
:100CD000FF24C092A0096091A10966FFFCCF60E4E7
:100CE0006093A1096091A009C12ED22EE32EFF24AA
:100CF000C092A0096091A10966FFFCCF60E46093F7
:100D0000A1096091A0090093A0092091A10926FFE3
:100D1000FCCF20E42093A1092091A00941155105A1
:100D200091F0FC01480F591F90E41092A0098091A6
:100D3000A10986FFFCCF9093A1098091A00981931E
:100D4000E417F50791F780E1809365061F910F91F5
:100D5000FF90EF90DF90CF9008953F924F925F9277
:100D60006F927F928F929F92AF92BF92CF92DF92BB
:100D7000EF92FF920F931F93CF93DF93EC0180913B
:100D8000FD2090E0A0E0B0E0DC0199278827860FE5
:100D9000971FA11DB11D4115510509F40FC100E0B8
:100DA00011E020E1A22E37ED932E60E4B62E70E123
:100DB000872EE7ED7E2EF3E54F2E24E8522E33E802
:100DC000632EC92EDA2EEB2EFF24382FB801681BB4
:100DD00071094617570708F4BA01809266067092A7
:100DE000A0092091A10926FFFCCFB092A109209172
:100DF000A0091092A0092091A10926FFFCCFB09272
:100E0000A1092091A009A092650627FFE6CF809254
:100E100066064092A0092091A10926FFFCCFB0925E
:100E2000A1092091A009D092A0092091A10926FF33
:100E3000FCCFB092A1092091A009C092A0092091F5
:100E4000A10926FFFCCFB092A1092091A009109220
:100E5000A0092091A10926FFFCCFB092A109209101
:100E6000A009A0926506A09266069092A009209122
:100E7000A10926FFFCCFB092A1092091A0091092F0
:100E8000A0092091A10926FFFCCFB092A1092091D1
:100E9000A009A092650627FFE6CF809266065092D1
:100EA000A0092091A10926FFFCCFB092A1092091B1
:100EB000A0091092A0092091A10926FFFCCFB092B1
:100EC000A1092091A0091092A0092091A10926FF53
:100ED000FCCFB092A1092091A0093093A0092091E4
:100EE000A10926FFFCCFB092A1092091A0096115AC
:100EF000710591F0FE019B012C0F3D1F3190309246
:100F0000A0093090A10936FEFCCFB092A109309023
:100F1000A009E217F30791F7A0926506A092660672
:100F20009092A0092091A10926FFFCCFB092A109BF
:100F30002091A0091092A0092091A10926FFFCCFC1
:100F4000B092A1092091A009A092650627FFE6CFE3
:100F5000809266066092A0092091A10926FFFCCF2D
:100F6000B092A1092091A009D092A0092091A109D5
:100F700026FFFCCFB092A1092091A009C092A00940
:100F80002091A10926FFFCCFB092A1092091A009D0
:100F90001092A0092091A10926FFFCCFB092A109CF
:100FA0002091A009A0926506461B570B860F971F3C
:100FB000A11DB11D4115510509F003CFDF91CF915E
:100FC0001F910F91FF90EF90DF90CF90BF90AF9067
:100FD0009F908F907F906F905F904F903F9008957B
:100FE0008091FD2090E0A0E0B0E0BA2FA92F982FCB
:100FF00088279C01939570E150E460E1E7EDF1E80A
:1010000060936606E093A0094091A10946FFFCCFDA
:101010005093A1094091A0091092A0094091A10903
:1010200046FFFCCF5093A1094091A009709365063B
:1010300047FFE6CF60936606F093A0094091A109AF
:1010400046FFFCCF5093A1094091A0093093A0091D
:101050004091A10946FFFCCF5093A1094091A009FE
:101060002093A0094091A10946FFFCCF5093A1090C
:101070004091A0091092A0094091A10946FFFCCF20
:101080005093A1094091A009709365062F5F3F4FCF
:101090002817390709F0B4CF0895CF92DF92EF9265
:1010A000FF920F931F93FC01CB01BA0169016115F7
:1010B000710521E08207910540F081E01F910F91B9
:1010C000FF90EF90DF90CF90089500E010E021E0D6
:1010D00030E0E12CF12C061B170B280B390BC01646
:1010E000D106E206F30658F0A801CF0136DE81E012
:1010F0001F910F91FF90EF90DF90CF90089597018F
:101100008601A801CF0129DEF2CFCF92DF92EF92C4
:10111000FF920F931F93FC01CB01BA016901611586
:10112000710521E08207910540F080E01F910F9149
:10113000FF90EF90DF90CF90089500E010E021E065
:1011400030E0E12CF12C061B170B280B390BC016D5
:10115000D106E206F30658F0A801CF0179DD81E05F
:101160001F910F91FF90EF90DF90CF90089597011E
:101170008601A801CF016CDD81E0F2CFE0E0F6E06E
:1011800080E4828388E1868B0895FF920F931F93FA
:10119000CF93DF93CDB7DEB7A097CDBFDEBF8091F1
:1011A00008068095909192209827809392208074D1
:1011B0008923A9F0E091FE20F091FF208081813009
:1011C000B9F0823079F1833009F44AC0843009F4EF
:1011D0006BC0853009F486C0863009F463C0A096E0
:1011E000CDBFDEBFDF91CF911F910F91FF9008958A
:1011F0008091FB20882309F497C0F12C8E010F5FAA
:101200001F4F06DCF801EF0DF11D8083F3948091F0
:10121000FB20F816B0F3E091F720F091F820C80118
:101220000995DDCFE091F520F091F6208E010F5F5A
:101230001F4FC80109952091FB20222361F3F8017B
:1012400091E0992339F0808191E08F3F09F090E09F
:101250008F5F808331968E2F801B821790F3DBCFB8
:10126000E091F520F091F6208E010F5F1F4FC8012D
:1012700009952091FB2031E0215068F23323E1F3FE
:10128000822F90E0F801E80FF91F408131E04F3FD5
:1012900009F030E0F801E80FF91F4F5F408321505B
:1012A00068F7B9CFF8D09BCFE091F520F091F62008
:1012B0008E010F5F1F4FC80109952091FB2022234B
:1012C00009F4A9CFF80191E0992331F0808191E0F0
:1012D000811190E08150808331968E2F801B821780
:1012E00098F399CFE091F520F091F6208E010F5FF1
:1012F0001F4FC80109952091FB2031E0215008F4CF
:101300008ACF3323D9F3822F90E0F801E80FF91F39
:10131000408131E0411130E0F801E80FF91F415000
:101320004083215070F777CF8E010F5F1F4F73CF2F
:101330000F931F93CF93DF936150710947E453E0FC
:101340001CE29A01FA010491002349F1613271050E
:1013500020F425C06032710561F0DC010196EC01DA
:101360000C932F5F3F4F61507109F90104910111F6
:10137000F1CFF4E047305F0761F0CE0101961883AA
:1013800061507109405E5F4F24E047325207C9F651
:10139000EC011882DF91CF911F910F910895EC011C
:1013A000E8CFAB01E091FE20F091FF20608120E2C8
:1013B000629FB0011124695B7C4F0C943C22CF9357
:1013C000DF93EC0167E473E00E943322892B71F113
:1013D00067E673E0CE010E943322892B89F167E82A
:1013E00073E0CE010E943322892B61F167EA73E03A
:1013F000CE010E943322892B39F167EC73E0CE01D4
:101400000E943322892B11F167EE73E0CE010E9416
:101410003322892BE9F067E074E0CE010E94332289
:10142000892BC1F080E0DF91CF91089580E0E091B9
:10143000FE20F091FF20808381E0DF91CF9108951D
:1014400081E0F5CF82E0F3CF83E0F1CF84E0EFCF0E
:1014500085E0EDCF86E0EBCF43E150E060E070E067
:101460008DEF90E20C94442443E150E060E070E0A2
:101470008DEF90E20C944F24883008F0089580930B
:10148000FD2090E0880F991F80509F4D8093FE2093
:101490009093FF203FCA2091FD2030E02F5F3F4F07
:1014A00027703327822FF901EE0FFF1FEF5FFE4DEC
:1014B000908191115CC02F5F3F4F27703327822F9F
:1014C000F901EE0FFF1FEF5FFE4D908191114FC0AC
:1014D0002F5F3F4F27703327822FF901EE0FFF1F39
:1014E000EF5FFE4D9081911142C02F5F3F4F2770FB
:1014F0003327822FF901EE0FFF1FEF5FFE4D908122
:10150000911135C02F5F3F4F27703327822FF9018C
:10151000EE0FFF1FEF5FFE4D9081911128C02F5FEE
:101520003F4F27703327822FF901EE0FFF1FEF5F28
:10153000FE4D908191111BC02F5F3F4F27703327C5
:10154000822FF901EE0FFF1FEF5FFE4D9081911189
:101550000EC02F5F3F4F27703327822FF901EE0F08
:10156000FF1FEF5FFE4D9081911101C0089584CF60
:101570002091FD20205DFC01208311820895FC0153
:1015800080819181911103C08053883010F080E0F8
:10159000089572DF81E00895BC0181E090E20C942F
:1015A000DA1FCF93DF93EC012196FC01649166234F
:1015B00049F081E090E20E942920FE016491219689
:1015C0006111F7CFDF91CF910895AB01BC0181E0AC
:1015D00090E20C94FF1F80E2E0E6F6E0828308953B
:1015E000CF93DF9381E090E20E949C200E94BF1A7B
:1015F00081E090E20E94B720EC0197FD09C080E1F4
:1016000080939320809305068C2F52D2882319F063
:10161000DF91CF9108958C2FDF91CF91D8C3809126
:101620009420813031F1C8F0823059F0833039F4A0
:1016300080910020815080930020882341F199D32C
:101640006CC58091680685FDFACF84E18093002007
:1016500083E0809394208DD360C58091680685FFD8
:10166000EECF84E18093002081E08093942081D3A9
:1016700054C5809100208150809300208111DFCFDC
:10168000F7D80E94131F82E080939420D8CF0E9445
:10169000D81E07D910929420D2CF80E2E0E0F6E085
:1016A0008583089580E2E0E0F6E08683089581E096
:1016B00090E20C94B51F81E090E20C94142125E88F
:1016C00034E03F932F932EE734E03F932F9327E7A7
:1016D00034E03F932F932EE334E03F932F9321E0A8
:1016E0002F931F929F938F930E9454228DB79EB782
:1016F0000C968DBF9EBF85E6089529ED30E23F939D
:101700002F932BE334E03F932F9321E02F931F92ED
:101710009F938F930E9454228DB79EB708968DBFDA
:101720009EBF85E60895FCD8811102C08AEC089519
:101730009BDE84E6089560E071E02FD985E6089588
:10174000EF92FF920F931F93CF93DF93CDB7DEB746
:10175000A097CDBFDEBF8C01E090FB20F12CE09183
:10176000F520F091F620CE01019609959701AE0182
:101770004F5F5F4F60E071E0C80165D985E6A096D4
:10178000CDBFDEBFDF91CF911F910F91FF90EF9002
:101790000895BF92CF92DF92EF92FF920F931F9323
:1017A000CF93DF93CDB7DEB7A097CDBFDEBF8C015F
:1017B000C090FB20D12C64E374E00E943322892B7B
:1017C00041F5C114D10489F1B12CCE0101967C01FF
:1017D00000E010E01DD9F701E00FF11F8083B39402
:1017E0000B2D10E00C151D05A8F3E091F720F091EA
:1017F000F820C701099584E6A096CDBFDEBFDF9132
:10180000CF911F910F91FF90EF90DF90CF90BF90FD
:101810000895A80160E270E0CE0101967C0156D9DE
:101820008C159D0511F38AECE7CFCE0101967C0162
:10183000DCCF2091FC20211107C020E3FC01208394
:10184000FC01118285E6089521E3FC012083FC015F
:10185000118285E60895FC012181211105C0808156
:10186000813341F0803311F08AEC08951092FC200E
:1018700084E6089581E08093FC2084E608958DE459
:1018800098E0EBD08EE6089585E898E0FED08EE6ED
:101890000895E0ECF4E081818E7F81830E94D81E60
:1018A0000E942B0484E60895E0ECF4E081818E7FB1
:1018B00081830E94D81E0E94320484E60895E9EFD5
:1018C000F0E221812F9320812F9321E334E03F9395
:1018D0002F9321E02F931F929F938F930E94542266
:1018E0008DB79EB708968DBF9EBF85E6089520915F
:1018F000FB201F922F932EE234E03F932F9321E0A1
:101900002F931F929F938F930E9454228DB79EB75F
:1019100008968DBF9EBF85E6089560E071E008DD02
:1019200085E6089560E071E03CDD85E6089547DDD9
:10193000811102C08AEC089597DD84E6089560E085
:1019400071E016DE85E608951ADE811102C08AEC88
:1019500008958ADD84E6089543DB84E60895DF92E6
:10196000EF92FF920F931F93CF93DF937C01CFEF02
:10197000D0E007E515E08CE2D82EB80180E990E2CE
:101980000E943322892B39F1F8014491442379F1E3
:10199000C132D10560F1D701F80104C0C032D105D0
:1019A00051F0DC01CD0101969C014C9331962197B9
:1019B00044914111F3CF79018FEFE81AF80AF90148
:1019C000D08221970A5E1F4FB80180E990E20E9401
:1019D0003322892BC9F6D70111971C9285E6DF9136
:1019E000CF911F910F91FF90EF90DF900895970195
:1019F000E2CFFC0120912002206820932002209158
:101A0000230220FFFCCF81E080932302A0911002EB
:101A1000B0911102AE5BB109B7FD1CC029E637E5F4
:101A20004BE050E00E94B421AA27BB279F938F93DD
:101A300027E234E03F932F9381E08F931F92FF932F
:101A4000EF930E9454228DB79EB708968DBF9EBF1C
:101A500085E60895A0E0B0E0E1CF21E02093A22048
:101A60002093A12024E120939E2025E020939D2017
:101A700010929720109298201092992010929A20FC
:101A80008093952090939620089527E02093A2209C
:101A900024E620939D201092972010929820109277
:101AA000992010929A2080939520909396200895E3
:101AB000CF934091A22050E0FA013197E930F1052F
:101AC00020F0C0E08C2FCF910895E250FF4F0C948E
:101AD000AE212091A0209091A120291709F4DDC00A
:101AE00030E0892F90E001972817390709F420C1C9
:101AF00068E181E090E20E9429201092A220C1E0DA
:101B00008C2FCF910895853109F450C0883109F4A4
:101B100006C1863009F429C1853109F498C0C1E0B5
:101B20008C2FCF9108958093A02084E08093A220F1
:101B3000C1E08C2FCF91089590E04091A0202FEF2D
:101B400030E0241B31098217930731F585E080933B
:101B5000A220C1E0B7CF813009F4ECC0843009F491
:101B6000DEC0883151F2C1E0DBCF40919B20509123
:101B70009C209A012F5F3F4F20939B2030939C2005
:101B8000FA01E05FFE4D80832038310541F686E0A2
:101B90008093A220C1E096CF65E181E090E20E94AF
:101BA000292082E08093A220C1E08CCF81E0809345
:101BB000A120409197205091982060919920709198
:101BC0009A20E0919520F091962020E830E080E185
:101BD00091E20995C82F882309F4B7C061E081E03C
:101BE00090E20E9429206091A12081E090E20E9471
:101BF00029206091A120609581E090E20E94292037
:101C000060E870E080E191E2E0DCE0E1F1E260E0D8
:101C10008191680F81E2E039F807D1F781E090E225
:101C20000E942920409197205091982060919920FE
:101C300070919A2040585F4F6F4F7F4F409397208D
:101C4000509398206093992070939A203BCF61E045
:101C500081E090E20E9429206091A12081E090E241
:101C60000E9429206091A120609581E090E20E946D
:101C7000292060E870E080E191E2A7DCE0E1F1E298
:101C800060E08191680F21E2E039F207D1F781E04D
:101C900090E20E942920C1E043CFE0E1F1E290E030
:101CA0002191920F21E2E039F207D1F7891374CF25
:101CB00040919720509198206091992070919A209E
:101CC000E0919520F091962020E830E080E191E2CB
:101CD0000995C82F882309F442C08091A1208F5F05
:101CE0008093A12040919720509198206091992055
:101CF00070919A2040585F4F6F4F7F4F40939720CD
:101D0000509398206093992070939A2066E081E028
:101D100090E20E94292082E08093A220D3CE66E048
:101D200081E090E20E9429201092A220C1E0CACE58
:101D300066E033CF10929B2010929C2010929F203F
:101D400083E08093A220C1E0BDCE64E081E090E218
:101D50000E94292089E08093A220C1E0B3CE68E1EF
:101D600081E090E20E942920C3CE8091A1208F5F64
:101D70001ECF8091A220813071F0873059F480917C
:101D80009D209FEF980F90939D20811102C010928B
:101D9000A2200895089580919D209FEF980F909321
:101DA0009D208111F6CF80919E209FEF980F9093F8
:101DB0009E20811106C01092A22085E080939D2074
:101DC000089565E181E090E20E942920F6CF1F93FB
:101DD000CF93DF939FEB980F9A3128F09FE9980FEC
:101DE0009A31C0F480522091A3203091A4202F3F3B
:101DF000310558F4A9014F5F5F4F4093A3205093E2
:101E0000A420F901E05FFE4D808381E0DF91CF9156
:101E10001F91089590ED980F9A3028F38F3519F39C
:101E2000982F9D7F9D33F9F28D30A9F0883039F0DD
:101E30008B3159F71092A3201092A420E6CF809105
:101E4000A3209091A420009701F301978093A320F1
:101E50009093A420DACFE091A320F091A420E05F3A
:101E6000FE4D10821092A3201092A4208091102188
:101E7000882309F4A0C08D7F8D3309F49CC0E1E173
:101E8000F1E204C01F3331F01D3321F0EF01119155
:101E90001111F8CF188267E575E080E191E20E94A8
:101EA0003322892B09F436C16DE675E080E191E2B9
:101EB0000E943322892B09F42AC163E875E080E18E
:101EC00091E20E943322892B09F41EC169E975E071
:101ED00080E191E20E943322892B09F412C16FEA5A
:101EE00075E080E191E20E943322892B09F406C15A
:101EF00065EC75E080E191E20E943322892B09F4C0
:101F0000FAC06BED75E080E191E20E943322892BEB
:101F100009F4EEC061EF75E080E191E20E943322A6
:101F2000892B09F4E2C067E076E080E191E20E944B
:101F30003322892B09F4D6C06DE176E080E191E28D
:101F40000E943322892B09F4CAC063E376E080E162
:101F500091E20E943322892B09F4BEC069E476E045
:101F600080E191E20E943322892B09F4B2C06FE52F
:101F700076E080E191E20E943322892B09F4A6C029
:101F800065E776E080E191E20E943322892B09F433
:101F90009AC06BE876E080E191E20E943322892BBF
:101FA00009F48EC061EA76E080E191E20E9433227A
:101FB000892B09F452C088ECC0E0E1E9F4E0E49137
:101FC0008E1709F430C0E2EBF4E0E4918E1709F4C7
:101FD00041C0E3EDF4E0E4918E1709F438C0E4EF7A
:101FE000F4E0E4918E1781F1E5E1F5E0E4918E17DC
:101FF00041F1E6E3F5E0E4918E1701F180E090E035
:10200000D0DA8EE894E0CDDACC2309F4FECE8091CC
:102010001021882309F4F9CE80E191E2BDDA8BE842
:1020200094E0BFDAF2CE20E030E041E2429FC0010E
:10203000439F900D11248E569B4FE2CF25E030E058
:10204000F4CF24E030E0F1CF23E030E0EECF22E027
:1020500030E0EBCF21E030E0E8CF21EA36E010922B
:1020600010211F3319F11D3399F0112319F089EC58
:10207000C1E0A3CF205F3F4FF90145915491411535
:102080005105A9F380E191E2FA010995C1E095CFEC
:102090002E5E3F4FF901459154914115510539F399
:1020A000CE010196FA010995C1E087CF2C5E3F4F22
:1020B000F901459154914115510521F789ECD8CF8B
:1020C0002BE836E0CCCF25E736E0C9CF2FE536E068
:1020D000C6CF29E436E0C3CF23E336E0C0CF2DE1FD
:1020E00036E0BDCF27E036E0BACF21EF35E0B7CFFD
:1020F0002BED35E0B4CF25EC35E0B1CF2FEA35E05C
:10210000AECF29E935E0ABCF23E835E0A8CF2DE607
:1021100035E0A5CF27E535E0A2CF0895A0E2B6E0EF
:1021200082E011968C93119715968C931597E0E4A5
:10213000F8E010A211A28DE291E086A397A38FEFA1
:102140009FEF80A791A781E0808398E8938393E035
:1021500097831A968C9308951F920F920FB60F9241
:1021600011248F939F93EF93FF9380E192E28093EA
:10217000B1209093B22080E992E28093AF209093B7
:10218000B0201092AA201092A9201092A52010929F
:10219000AD201092AE201092A820E0E4F8E0138267
:1021A00086E990E086AB97AB8AE190E080AF91AF93
:1021B000E0E4F9E010A211A28FEF9FEF86A397A3AE
:1021C00089E883838EE08083E0E2F6E01286FF9167
:1021D000EF919F918F910F900FBE0F901F901895C8
:1021E0001F920F920FB60F9211242F933F934F938C
:1021F0008F939F93EF93FF93909128068091A9204E
:10220000957021E009F020E0880F822B8093A920AF
:102210009091A5209923C1F1982F9770973009F4D8
:1022200048C0982F9C7081F182FB882780F991E04B
:1022300089278093A7209091A82091117FC0909129
:10224000AA209695882309F483C020E8292B20939F
:10225000AA208091AD209091AE2001968093AD2070
:102260009093AE2087709927892B71F4E091B1206B
:10227000F091B220CF0101968093B1209093B220CB
:10228000208381E08093A8208091A52091E0892778
:102290008093A52088E880934308FF91EF919F9158
:1022A0008F914F913F912F910F900FBE0F901F90E4
:1022B00018951092400880E180934C0810924309D1
:1022C0008091A7208823E9F18CEB94E08093660944
:1022D000909367091092A62081E080934C0983E0D7
:1022E000809346098091AD209091AE20877011F1C6
:1022F0009091AA20969522E0280F8730B1F096950C
:1023000043E0480F283088F4969534E0380F483081
:1023100060F4969525E0280F383038F496952830EB
:1023200020F49695813009F49695E091B120F091D2
:10233000B220908381E08093B320A6CF1092A82092
:10234000A3CF8CE794E08093660990936709C2CF8E
:1023500020E07CCF1F920F920FB60F9211242F9383
:102360003F938F939F93AF93BF93EF93FF9380918E
:10237000A62090E08B30910580F5FC01E95FFE4FCF
:102380000C94AE21E091AF20F091B02080818111BA
:10239000ACC080E4809345062091AB203091AC2006
:1023A0008091AD209091AE202817390709F46CC0B8
:1023B0003196E093AF20F093B020E091B120F091FE
:1023C000B220CF0101968093B1209093B2208181F9
:1023D0008093AA2084E08093A620FF91EF91BF9183
:1023E000AF919F918F913F912F910F900FBE0F90C2
:1023F0001F9018958FE390E080936609909367098A
:102400008EE08093000880E48093450683E080930B
:10241000A620E3CF80E48093460684E08093A62044
:10242000E091B120F091B22080818093AA20D5CF95
:102430008091AA2080FD64C080E48093460685E0F8
:102440008093A620CACF8091AA2090E480FD55C039
:102450009093450686958093AA208091AB20909119
:10246000AC2001968093AB209093AC209C01277008
:102470003327232B09F448C02091AD203091AE20A2
:102480008217930709F0A6CF88E08093A620A5CFF6
:10249000E091AF20F091B020808181112AC080E4CA
:1024A0008093460687E08093A62097CF80E48093B0
:1024B000460689E08093A62090CF80E4809346066C
:1024C0008AE08093A62089CF109240091092460995
:1024D0001092000881E08093B4207FCF8FE790E0D6
:1024E000809366099093670978CF80E480934606CD
:1024F00053CF80E480934506D5CF90934606AACF6C
:1025000080E4809345069BCF86E08093A62065CF2C
:10251000CF93DF93E0E4F6E084E08283128AC0E8A0
:10252000D1E082E68E83A0E2B6E085E012968C933D
:10253000129781E050968C93509782E052968C933C
:1025400052971A961C921A9783E019968C9398E5E5
:1025500098839AE5998390E4918396838183868317
:10256000E0E0F8E08FE090E086A397A388E090E0B9
:1025700082A793A783E28183DF91CF91CFCDCF93C1
:10258000DF938091B3208823C1F01092B32082E0C2
:1025900080932106809326066091AD207091AE2035
:1025A0006115710589F4E091EF20F091F020099513
:1025B0001092400910924609B1DD8091B42081113A
:1025C0002AC0DF91CF910895E091F320F091F4209B
:1025D00080E192E2099594FF23C09F7E009741F32A
:1025E0008093AD209093AE201092AB201092AC203F
:1025F00080E192E28093B1209093B22080E992E250
:102600008093AF209093B02081E08093A6208091AA
:10261000B4208823B1F21092B420DF91CF917ECD07
:10262000AC01569547955695479556954795411552
:102630005105A1F270E020E030E0F901E05FFD4DCE
:102640006081062E62956025062E6695669560254A
:10265000E058FF4F6F5F66956170C62F20E0D22F64
:1026600021E0C227C0837F5F272F30E02417350782
:1026700020F3B6CF81E08093D12084E090E0809376
:10268000B6209093B72088E08093B520089581E02C
:102690008093D12082E090E08093B6209093B72081
:1026A00088E18093B520089581E08093D12008953A
:1026B00008957F928F929F92AF92BF92CF92DF92B6
:1026C000EF92FF920F931F93CF93DF93CDB7DEB7B7
:1026D0002E97CDBFDEBF8C014091D12050E04A3013
:1026E000510598F080E090E02E96CDBFDEBFDF91DF
:1026F000CF911F910F91FF90EF90DF90CF90BF90FF
:10270000AF909F908F907F900895FA01EE5EFE4FFC
:102710000C94AE217C01D12CF701C08099D58C2579
:10272000D7018D937D01D394B2E1DB12F5CF60E147
:1027300070E0C801E5D3882309F4ECC18091FC2046
:10274000882309F4EDC197D59AE09827D8019C9386
:1027500085E08093D12084E090E0C6CF7C0156E0F4
:10276000D52ED701CC9074D58C25F70181937F01AC
:10277000DA94B9F764E070E0C801C2D38111B0C146
:102780007AD591E09827D8019C93E2CF2091B6208A
:102790009091B720D8018C91863219F0823509F0DA
:1027A000A1CFF8012083918382E08093D12080E142
:1027B00090E09ACF2091B6209091B720D8018C91CB
:1027C000863279F3823569F3833909F4CBC11092EB
:1027D000D12080E090E088CF16D56801B4E0CB0E20
:1027E000D11CB12CF601A08033D58A25D6018D935A
:1027F0006D01B394B4E0BB12F5CFF80194818091E0
:10280000C920981709F42EC181E08093D12080E07F
:1028100090E06ACF7C0174E0B72ED701AC9018D558
:102820008A25F70181937F01BA94B9F7D8018C9179
:10283000803309F489C1803A09F4CBC1803C09F4A2
:10284000DAC1813C09F475C2823C09F480C2803B44
:1028500009F48EC280568230B8F662E070E0C8019A
:102860004FD3882309F468C1F80181818C7390816A
:10287000903609F4EBC26AE370E07B01F0E18F9FD0
:10288000E00CF11C112464E0CE0107960E940B05B8
:1028900044E050E060E070E0CE010B960E94280614
:1028A00046E050E0B701CE0101960E9428068F81D4
:1028B0009885A985BA858093C9209093CA20A09352
:1028C000CB20B093CC2060E470E089EC90E2E6D4B9
:1028D0008091C9209091CA20A091CB20B091CC20AA
:1028E0008093CD209093CE20A093CF20B093D02082
:1028F00060E270E08DEC90E2D1D4AE01495F5F4FB1
:10290000BE01655F7F4FCE010196B0D38F81988560
:10291000A985BA85F80180839183A283B38384E07B
:102920008093D12080E290E0DFCEFC01808186326E
:10293000D1F08235C1F0803509F190EA980F9230DC
:1029400038F1982F9F77903331F0803A21F0805CF6
:10295000833008F059CF81E08093D12084E0D80102
:102960008C9390E0C1CE84E0D8018C9311961C9298
:1029700082E08093D12080E190E0B6CEF8018181A1
:10298000882309F413C2F801108284E090E0ACCEF1
:1029900062E070E0C801B4D2882309F40DC2D80106
:1029A00011962C9111972C738C91803609F451C299
:1029B0008AE390E07C01B0E12B9FE00CF11C112434
:1029C00064E0CE0107960E940B0544E050E060E011
:1029D00070E0CE010B960E94280646E050E0B70159
:1029E000CE0101960E9428068F819885A985BA8517
:1029F0008093C9209093CA20A093CB20B093CC2081
:102A000060E470E089EC90E249D48091C920909113
:102A1000CA20A091CB20B091CC208093CD20909360
:102A2000CE20A093CF20B093D02060E270E08DEC58
:102A300090E234D484E08093D1208F819885A98559
:102A4000BA85F80180839183A283B383AE01495F85
:102A50005F4FBE01655F7F4FCE01019607D380E2D5
:102A600090E042CE95818091CA209813CDCE968178
:102A70008091CB209813C8CE97818091CC20981359
:102A8000C3CE68010DEC10E25F01F0E8AF0EB11C9F
:102A90004801D8017D908D01DBD38725F601819314
:102AA0006F01D4019C90092C92949024092C969447
:102AB00096949024A9D2939491FAEE24E0F8F12C04
:102AC000B1E0EB268E25F50181935F01F0E2013D37
:102AD0001F07F1F685E08093D12080E290E104CEDB
:102AE0006091C820F0E16F9FB001112440E150E0F7
:102AF00088EB90E20E9428062091B8208091BC20AB
:102B00008095281709F488C0B6D396E09827F80175
:102B100090831ECEB0D391E09827F801908318CE11
:102B20006091C820E0E16E9FB001112440E150E0C7
:102B3000C8010E94AD0607CE9ED391E09827D80128
:102B40009C9384E090E0D0CD62E070E0C801D8D1E1
:102B5000811138C190D391E09827F801908384E0E7
:102B600090E0C2CD44E050E060E070E0CE0101961C
:102B70000E9428069091B520D80111968C91803240
:102B800009F454C1803709F0ADCDD80112962C91CB
:102B9000129789812813A6CD13962C9113978A81B9
:102BA0002813A0CD14962C9114978B8128139ACDBD
:102BB00015962C9115978C81281394CD9C9361E0E8
:102BC00070E0C8016FD183E08093D12088E190E06C
:102BD0008BCD62E070E0C80193D1882309F4ACCFBB
:102BE000D80111968C918093C82086E08093D120E3
:102BF00042D39AE0B1CF62E070E0C80181D188236E
:102C000009F4A8CFF80181818093C82088E08093DF
:102C1000D12031D39AE092CF8091C020281374CF75
:102C2000E091B9208091BD208095E8136DCF80910F
:102C3000C120E81369CF8091BA209091BE20909571
:102C4000891362CF9091C22089135ECF3091BB204F
:102C50009091BF209095391357CF9091C32039138D
:102C600053CF4091C4209091C520909549134CCFEB
:102C70009091C620491348CF9091C7209095491351
:102C800043CFD8019C911196FC91119712964C91CB
:102C9000129750E060E070E0BA01552744275F2B9F
:102CA000492B13969C91792B90E0A0E0B0E0DC01D9
:102CB000992788279E2B822BB32B2091D120283057
:102CC00009F46FC0273021F4840F951FA61FB71F8A
:102CD0008093B820C92EDA2EEB2EFF24C092B920A3
:102CE0008D01222733270093BA204B2F55276627C3
:102CF00077274093BB20E82FE095E093BC20EC2D94
:102D0000E095E093BD20E02FE095E093BE20E42F16
:102D1000E095E093BF208093C020C092C120009333
:102D2000C2204093C32085E08093D12080E090E0D2
:102D3000DBCC62E070E0C801E3D0882309F4FCCE6C
:102D4000D80111968C918093C82087E04FCF62E024
:102D500070E0C801D5D0882309F4FCCEF801818148
:102D60008093C82089E08093D12085D29AE0E6CE76
:102D700062E070E0C801C4D0882309F4DDCE809100
:102D8000FC20811135CFD80111966C91B0E16B9F79
:102D9000B001112440E150E088EB90E20E94AD06C2
:102DA00027CF841B950BA60BB70B92CF62E070E088
:102DB000C801A6D081110BCD81E0D8018C9384E0AD
:102DC00090E092CCF8016181F0E16F9FB001112495
:102DD00040E150E0C8010E94280660E170E0C801AF
:102DE00061D0780130E8E30EF11C62E1A62ED80133
:102DF000BC902ED28B25F80181938F010B2CB294BD
:102E0000B0240B2CB694B694B024FED0B394B1FA8F
:102E1000CC24C0F8D12CF1E0CF268C25D7018D939E
:102E20007D01AA9421F780E990E15ECC8981F801C7
:102E300080833A8131832B8122839C8193838327F2
:102E400082278927848388E290E04ECC60E370E09B
:102E500014CD80E390E0AECD44E050E060E070E05F
:102E60000C942806CF93DF931F92CDB7DEB7FC01F9
:102E7000218130812327328123273381232729830E
:102E800044E050E060E070E00E94AD0641E050E0B8
:102E900064E070E0CE0101960E94AD060F90DF91D4
:102EA000CF910895FC016115710539F1680F791F03
:102EB00023E633E64191422750E1459FC0011124AA
:102EC000A42FA8278A2F90E0582F4427880F991FF6
:102ED000880F991F880F991F48275927232F3327B9
:102EE00024273527A295AF702A27E617F70711F791
:102EF000922F832F90838183089583E693E6FACF00
:102F0000FC0161157105A9F1680F791F23E633E60D
:102F10004191422750E1459FC0011124A42FA827C9
:102F20008A2F90E0582F4427880F991F880F991FE8
:102F3000880F991F48275927232F33272427352700
:102F4000A295AF702A27E617F70711F7A9015527B1
:102F5000808190E08417950711F080E00895418109
:102F600050E0232F332781E042175307B9F380E065
:102F7000F5CF43E650E023E633E6EACFCF93B091B6
:102F8000D520C091D6204091D720A091D220F09199
:102F9000D320E091D4209C2F90712B2F217E92275B
:102FA000242F207292272A2F247992272F2F2377DC
:102FB00092272E2F2A739227392F32953F70392767
:102FC000232F269526952327922F969550E060E093
:102FD00070E0BA01552744275C2B4B2B76956795FB
:102FE000579547959227917098136068A093D520C4
:102FF000F093D620E093D7204093D2205093D32053
:103000006093D420CF910895CF93DF93A091D320E4
:10301000EA2FEF70F0E0E05CFF4DC091D220C29546
:10302000CF70D0E0C05CDF4DE0898881E82BA295AD
:10303000AF70B0E0A05CBF4D90968C91E82BA09152
:10304000D420CA2FCF70D0E0C05CDF4D88A9E82B18
:10305000A295AF70B0E0A058BF4D8C91E82BF0E086
:10306000E05EFF4D8081DF91CF910895AF92BF92D6
:10307000CF92DF92EF92FF920F931F93CF93DF9344
:103080005B01EA01DC01119645ED50E262ED70E270
:10309000CD010197FC0120818C9130E0382B20FF7D
:1030A000B0C000E421FFABC010E4C901969587953C
:1030B00096958795302F306880FF302F212F20681C
:1030C00081FF212F9695879596958795369526951C
:1030D000132F106880FD312F122F106881FD212FD2
:1030E000969587959695879536952695132F106812
:1030F00080FD312F122F106881FD212F9695879525
:103100009695879536952695132F106880FD312F5B
:10311000122F106881FD212F96958795969587959A
:1031200036952695132F106880FD312F122F1068C9
:1031300081FD212F969587959695879536952695AD
:10314000132F106880FD312F122F106881FD212F61
:10315000969587959695879536952695032F0068C1
:10316000122F106880FD302FFA013193AF0181FDDD
:10317000212FFB012193BF011296F0E2483D5F072A
:1031800009F086CFF501818199818927C2809A81D2
:10319000C926D12CE12CF12C7601DD24CC24D82AAF
:1031A000808198818927C82A83819B818927F82A71
:1031B00010E22ADF082F8C2D8170E0DEF694E79470
:1031C000D794C794002311F06894F7F8115089F749
:1031D00088818C25888389818D2589838A818E25A4
:1031E0008A838B818F258B83DF91CF911F910F91E4
:1031F000FF90EF90DF90CF90BF90AF90089510E0D8
:1032000054CF00E04FCFCF92DF92EF92FF92CF9357
:10321000FC018181C280D12CE12CF12C7601DD24CE
:10322000CC24D82A8081C82A8381F82AC0E2ECDE27
:103230009C2D91708927A2DEF694E794D794C794C9
:10324000C150A9F7CF91FF90EF90DF90CF900895F4
:103250001F93CF93DF93D8E0C0E0D6DE182F80E035
:103260008DDEC6951111C068D150B9F78C2FDF9152
:10327000CF911F9108951F93CF93DF93D4E0C0E0C7
:10328000C3DE182F80E07ADEC6951111C860D150D8
:10329000B9F78C2FDF91CF911F9108958F929F9254
:1032A000AF92BF92CF92DF92EF92FF920F931F9354
:1032B000FC01CB010197672BB1F1B281A081818024
:1032C000038102C0A42FBC2D2B2F2D72322F3295DB
:1032D0003F703227232F269526952327322F3695A8
:1032E000402F50E060E070E0742F66275527442798
:1032F00058294A2B6B2B769567955795479532271A
:1033000030FD7068852E962EA72EBB246B01EE240F
:10331000FF24072F112722273327019798F6408390
:103320008182C28203831F910F91FF90EF90DF9003
:10333000CF90BF90AF909F908F9008950F931F9361
:10334000CF93DF93CDB7DEB7EA97CDBFDEBF05E100
:1033500013E2F7D2F80181938F01F3E20D311F07D9
:10336000C1F70E945B0B6BD3882349F03091152382
:1033700020911623822F90E08A30910568F05FD368
:10338000882311F075D3A0D3EA96CDBFDEBFDF91BD
:10339000CF911F910F910895FC01E45EFE4FDEC7AF
:1033A0003111EDCF80911723823048F761D380919E
:1033B00017238093102393D480911023882309F43A
:1033C000D1C084E0809314230E94570BD8CF3038AB
:1033D000B1F64ED380911023C4D28BD280D4CFCFFC
:1033E0003058323060F680911723909118238C3D2D
:1033F000E3E09E0709F488C0AE014F5F5F4F609124
:1034000019230E94B0038C01009709F4B8CF30D380
:10341000B80189819A81C1D185D2B1CF3111AFCFA5
:10342000109117231F7724D35AD4E4D28823E9F3C9
:103430001093C304111166C082E0809314239FCFC0
:10344000332309F44BC0323009F099CF8091172310
:10345000811124C0109119231F7009F490CF812F7E
:1034600090D280911623833009F486C0A0911F2347
:10347000B091202311968C9111978B7F11968C938C
:1034800024E8129FF0011124ED59FC4D1082E091C7
:103490001F23F091202380818E7F808380E071D272
:1034A000E7D21DD46CCF303829F1323809F067CF1C
:1034B000809119238F7065D2E0911F23F091202312
:1034C000118112FB112710F980E05BD2D1D2812F3C
:1034D00048D280E046D20DD202D451CF809117233A
:1034E000813009F04CCF81E0233009F080E08093F7
:1034F0001223D4CF1091112380911223882331F30A
:103500001260E4CF83E099CF83E08A838AE38983E2
:103510005FB7F894DE01139620E038E042E007C080
:1035200090E0C7968D939D932F5F2C3191F040933F
:10353000CA01E32FF0E084911092CA0120FF03C07A
:1035400082958F703F5F8F708A3050F790E0C09601
:10355000E9CF5FBF8DD26AE370E0CE01019688D0DB
:10356000E1D10DCF8091C304882321F084E08093C2
:1035700014232ACF81E0FBCFA7D290CF0895CF9319
:1035800080911423811102C0CF910895C09121230D
:1035900080E0F7D154D2811103C08C2FCF91F1C1BB
:1035A000CDDE8C2FCF91EDC1CF92DF92EF92FF92C3
:1035B0000F931F93CF93DF938C01EB017A01A5D377
:1035C000811125C0E114F10481F1F701808191811D
:1035D000C81BD90B080F191F209709F43BC0C12C39
:1035E000D12C20911D2330911E23F901EF5BFF4F59
:1035F000908131978081981778F17BD1C0DFF701F6
:10360000808191818C0D9D1D8083918385E0DF9168
:10361000CF911F910F91FF90EF90DF90CF90089581
:1036200068D1ADDF72D38111F2CF209799F020914C
:103630001D2330911E23F901EF5BFF4F90813197DD
:103640008081981768F7F80181918F018AD12197BD
:10365000209769F780E0DBCFF80181918F0181D15C
:10366000FFEFCF1ADF0ACC15DD0509F0BACFF2CF94
:10367000CF92DF92EF92FF920F931F93CF93DF933E
:103680006C018B018091212380687BD1C0911B2329
:10369000D0911C23C017D10728F00115110509F49A
:1036A0006FC0E80110E0209739F511110CC02FC050
:1036B000853091F1C4D1811131C0A8D1811127C0C9
:1036C00099D181112DC0809114238111F1CF82E015
:1036D000DF91CF911F910F91FF90EF90DF90CF90EE
:1036E00008958530C9F0ABD1811118C08FD18111F7
:1036F0000EC080D1811114C0809114238111F1CFAB
:10370000E6CF80911423882311F3853029F07ED1F0
:103710008823B9F380E0DCCF83E0DACF81E0D8CF33
:103720008091212387FD30C020911D2330911E23DD
:10373000F901E05CFF4FE08031968081F12CE81ABE
:10374000F1082097A9F088E0E816F10488F48601D2
:1037500004C088E0E816F10459F0F80181918F0166
:1037600000D168012197FFEFEF1AFF0A209789F730
:1037700011E0E8E0EE16F10409F010E0BAD093CFC2
:10378000B8D0C0E0D0E08ECFE0911D23F0911E2391
:10379000EF5BFF4FE080F12CD4CFDF92EF92FF92EE
:1037A0000F931F93CF93DF93F82EE92E8B01809117
:1037B00021238068E6D0C0911B23D0911C23C01721
:1037C000D10728F00115110509F486C0E8010F2D75
:1037D0001E2DD12C209739F5D1100DC02FC085306A
:1037E00009F438C02CD181113EC010D1811126C0FE
:1037F00001D1811141C0809114238111F0CF82E069
:10380000DF91CF911F910F91FF90EF90DF9008957E
:10381000853001F114D1811126C0F8D081110EC07C
:10382000E9D0811129C0809114238111F1CFE7CF14
:1038300080911423882319F3853061F0E7D0882321
:10384000B9F380E0DF91CF911F910F91FF90EF903E
:10385000DF90089583E0DF91CF911F910F91FF904A
:10386000EF90DF90089581E0DF91CF911F910F914C
:10387000FF90EF90DF9008958091212387FD30C065
:1038800080911D2390911E23FC01E05CFF4FE0809E
:1038900031968081F12CE81AF1082097A1F088E098
:1038A000E816F10428F00FC088E0E816F10459F09A
:1038B000F801849156D00F5F1F4F2197FFEFEF1A49
:1038C000FF0A209789F7DD24D394E8E0EE16F1048F
:1038D00009F0D12C0ED07ECF0CD0C0E0D0E077CF55
:1038E000E0911D23F0911E23EF5BFF4FE080F12C50
:1038F000D4CFE0911F23F0912023A0911D23B091FC
:103900001E23AF5BBF4F8C9190E0828393838081B5
:103910008D798083E0911D23F0911E23EF5BFF4F93
:1039200010820895E0911F23F091202380818D79EA
:103930008083E0911D23F0911E23EF5BFF4F1082E7
:10394000089580911D2390911E23FC01EF5BFF4F92
:10395000208131E0320F3083FC01E20FF11D8081C4
:10396000089520911D2330911E23F901EF5BFF4F35
:10397000908141E0490F4083F901E90FF11D8083F7
:10398000089580932123282F2F70622F70E094E8F0
:10399000299F900111242E5D3C4D4091C604509109
:1039A000C70487FD12C020931D2330931E23CB0133
:1039B00082959295907F9827807F9827840F951FF6
:1039C00080931F239093202308952E5B3F4F2093D5
:1039D0001D2330931E2362957295707F7627607F3A
:1039E0007627685F7F4F640F751F60931F23709366
:1039F00020230895809121238068C3DFE0911F2355
:103A0000F0912023808186958170089580912123F3
:103A10008F77B7DFE0911F23F0912023808185FF0E
:103A20000CC020911D2330911E2382819381F901C6
:103A3000E05CFF4F808381E0089580E008958091ED
:103A400021238F779EDFE0911F23F0912023808137
:103A500084FF0CC020911D2330911E23828193810D
:103A6000F901E05CFF4F808381E0089580E00895D4
:103A7000809121238F7785DFE0911F23F091202310
:103A800080818D788083E0911F23F09120238081B5
:103A900081608083E0911D23F0911E23EF5BFF4F37
:103AA00010828091212380686CDFE0911F23F091C8
:103AB0002023808181608083E0911D23F0911E236B
:103AC000EF5BFF4F10820895E0911F23F0912023B8
:103AD000818184608183E0911F23F0912023818183
:103AE000807C803409F0089580912123805849DF3B
:103AF000E0911F23F09120238181846081830895C8
:103B00001F93CF93DF9300D0CDB7DEB7182F4A8332
:103B1000698337DFE0911F23F09120231182E09128
:103B20001F23F09120234A81698117FD20C0108254
:103B3000E0911F23F09120236183E0911F23F091F6
:103B400020231282138280911D2390911E2384834F
:103B5000958340E0FC01E05CFF4F4083319610828A
:103B600081E00F900F90DF91CF911F91089582E037
:103B70008083E0911F23F09120236183E0911F2334
:103B8000F09120231282138280911D2390911E2395
:103B900084839583DFCFCF92DF92EF92FF920F93D2
:103BA0001F93CF93DF931F92CDB7DEB7F62E662318
:103BB00009F43EC06C0100E0D6011C91112391F183
:103BC000D6011196ED91FC91129713968C91139753
:103BD00014969C91923008F445C098E148E1E93090
:103BE000F10550F028E030E090E09F5F220F331F96
:103BF0002E173F07D0F3942B212F2F7030E0263063
:103C000031059CF59F7EE134F10578F5882301F1BB
:103C10008130C9F4906CEE2E4E2D692F812F70DF0C
:103C2000882319F10F5FB5E0CB0ED11C0F11C4CF63
:103C300081E00F90DF91CF911F910F91FF90EF9056
:103C4000DF90CF9008959068882319F0EE2EE4CF8E
:103C50009064EE2E4E2F692F80E8810F998350DFFC
:103C60009981DACF98E048E0BACF80E0E2CFE0EC8B
:103C7000F4E0A681B78119961C92A681B7811196AE
:103C80001C92A681B78159961C92A681B781519644
:103C90001C92A681B78199961C92A681B7819196B4
:103CA0001C92A681B781D9961C92A681B781D19624
:103CB0001C92A681B781A75BBF4F1C92A681B781DA
:103CC000AF5BBF4F1C92A681B781A75ABF4F1C9212
:103CD0000680F781E02DEF5AFF4F10820895809102
:103CE000152387FF05C00CC080911423882361F041
:103CF00081DE8823C9F3FDCD80911423882321F030
:103D000085DE8823C9F30ECE08951F93CF93DF93EA
:103D1000E091C604F091C704E05AFF4FC081D18101
:103D200014E6809121238078803831F16FDE811193
:103D300026C080911423882339F1853051F1E09118
:103D40001F23F0912023818182FD28C0E091C604C9
:103D5000F091C704E05AFF4F80819181C817D907BD
:103D600001F32FEF210F1123F1F0EC01122F8091BD
:103D7000212380788038D1F63DDE8823D1F280E09F
:103D8000DF91CF911F91089582E0DF91CF911F9134
:103D9000089583E0DF91CF911F91089581E0DF9135
:103DA000CF911F91089584E0DF91CF911F910895E5
:103DB00062D068D0E0ECF4E081818E7F81838081E5
:103DC0008F778083109213230895CF93DF93E0E4DD
:103DD000F0E014828481816084834DD053D0C0ECA4
:103DE000D4E088818F778883888180688883109267
:103DF0001423109210231092122310921123888101
:103E00008064888348E068E480E87ADE48E068E41B
:103E100080E076DE888580648887898181608983F7
:103E2000DF91CF9108952FB7F89482E0E0ECF1E0B4
:103E30008287EAE1F0E0E491A0ECB4E0DA96EC935A
:103E4000DA97EBE1F0E0E491DB96EC93DB97E0ECC2
:103E5000F1E012868BE396E28E7F16968D939C930B
:103E6000179785E18C9382E018968C932FBF81E0A1
:103E700080931323AACFE0ECF4E0808583708087E1
:103E800011860895E0ECF4E08FEF8287848708952F
:103E90001F920F920FB60F9211242F933F934F93BF
:103EA0005F936F937F938F939F93AF93BF93EF93A2
:103EB000FF938091CA0487FD4DC08091CA0486FD9E
:103EC00041C08091CA0485FF0CC080E28093CA047F
:103ED00080911023882371F184E0809314230E9441
:103EE0004D0B8091CA0484FF14C080E18093CA0402
:103EF00082E080931423109210231092C304B7DE43
:103F000048E068E480E8FCDD48E068E480E0F8DD53
:103F100035DBFF91EF91BF91AF919F918F917F9191
:103F20006F915F914F913F912F910F900FBE0F9026
:103F30001F9018958091C304811115C081E0809372
:103F40001423CDCF80E48093CA04109214230E94DE
:103F5000520BB7CF8091C80487FFAFCF80E8809322
:103F6000CA040CDBAACF83E0EACFCF93DF93EC0146
:103F7000FC0170968BE0DF011D928A95E9F782E0E3
:103F80008C83898783E08E8761E0CE01019603DE12
:103F9000811104C080E0DF91CF91089561E0CE01EE
:103FA0000696F9DD8823B1F361E0CE010B96DF912F
:103FB000CF91F1CDCF93DF93EB01209114232430E7
:103FC00021F082E0DF91CF910895FC014489558969
:103FD00066897789452B462B472B99F38181D1DC64
:103FE000FE0101900020E9F7BF01615071096C1BCF
:103FF0007D0B40E050E0CE01DF91CF91D5CAEF922A
:10400000FF920F931F93CF93DF93EB017A012091DF
:104010001423243041F082E0DF91CF911F910F9162
:10402000FF90EF900895FC0104891589268937894E
:10403000012B022B032B79F38181A3DC40E050E0BC
:10404000B701CE01DF91CF911F910F91FF90EF90BB
:10405000ABCA0F931F93CF93DF931F92CDB7DEB7F9
:1040600020911423243039F082E00F90DF91CF911A
:104070001F910F910895FC010489158926893789BC
:10408000012B022B032B81F3818169837ADC209140
:104090001D2330911E23F901EF5BFF4F9081319773
:1040A00080816981981730F0698323DC2EDE698175
:1040B0008111DBCF862F55DC80E0D7CFCF93DF9304
:1040C00020911423243021F082E0DF91CF910895D4
:1040D000FC014489558966897789452B462B472BF6
:1040E00099F381814EDC8091212320911D23309111
:1040F0001E23F90187FD1BC0E05CFF4F80813196D4
:10410000408190E0841B9109892B11F480E0DDCF80
:10411000F901EF5BFF4FD0813197C081EADBDC17FB
:10412000A8F3F3DD8111D1CFE4DB80E0CECFEF5BEC
:10413000FF4F808190E0E8CFCF93DF93EC01809137
:104140001423843019F0DF91CF9108954C895D8953
:104150006E897F89452B462B472BA9F3898111DC7A
:1041600049DC882381F3CE01DF91CF91A7CFCF9394
:10417000DF93209114232430A9F5FC01448955894B
:1041800066897789452B462B472B61F18681F9DBC0
:104190003DDC882339F18091212340911D235091EA
:1041A0001E23FA0187FD3AC0E05CFF4F8081319603
:1041B000208190E0821B9109892BC9F4CFEFDFEFBA
:1041C00080912123FA0187FD1EC0E05CFF4F208112
:1041D0003196808130E0281B3109D9F0CE01DF9182
:1041E000CF9108958FEF9FEFDF91CF910895A9DBD5
:1041F000C82FD0E040911D2350911E238091212390
:10420000FA0187FFE2CFEF5BFF4F208130E0232BE5
:1042100029F788DBCE01DF91CF910895EF5BFF4F47
:10422000808190E0C9CF0895FF920F931F93CF93A1
:10423000DF93EC0104DC882349F0888190E0209131
:10424000192330911A232817390731F0DF91CF91C4
:104250001F910F91FF90089580911623813209F4E8
:1042600048C0A0F0823209F465C0833279F78091AA
:104270001523813259F7FCDB32DD60911723CE0123
:10428000DF91CF911F910F91FF90CDCF8032F1F64A
:10429000809115238132D1F6EBDB04C08091142389
:1042A0008823A1F2B3DB8823C9F34BDB082F49DB5A
:1042B000182F47DBF82E45DB4F2D50E060E070E013
:1042C000BA0155274427782B402B512B4C8B5D8B03
:1042D0006E8B7F8B36DB888F34DB898F32DB8A8F66
:1042E00021DBFDDCCE01DF91CF911F910F91FF907B
:1042F0009ACF80911523813A09F0A8CFB9DB7ADBF8
:104300008823E9F38C89FD880E891F892ADB8F2D8C
:1043100028DB802F26DB812F24DB888D22DB898D13
:1043200020DB8A8D1EDBE5DADF91CF911F910F91A3
:10433000FF90D5CC80911523813209F087CF98DB8F
:10434000CEDC8091172390911823888B998BCE0116
:10435000DF91CF911F910F91FF9065CFEE0FFF1F5F
:104360000590F491E02D0994B7FF04C003D0821B9F
:10437000930B089509D0A59F900DB49F900DA49F15
:10438000800D911D11240895A29FB001B39FC0011B
:10439000A39F700D811D1124911DB29F700D811D71
:1043A0001124911D08958F929F92AF92BF92CF9248
:1043B000DF92EF92FF92CF93DF93EC0168817981D6
:1043C0008A819B81611571058105910521F464E263
:1043D00079ED8BE597E02DE133EF41E050E031D30B
:1043E00049015A019B01AC01A7EAB1E4C3DF6B01AB
:1043F0007C01ACEEB4EFA5019401B8DFC60ED71E68
:10440000E81EF91EF7FE06C081E0C81AD108E108CF
:1044100080E8F80AC882D982EA82FB82C6019F77C7
:10442000DF91CF91FF90EF90DF90CF90BF90AF9052
:104430009F908F900895B7CF8CE190E2B4CFA0E029
:10444000B0E080931C2090931D20A0931E20B09379
:104450001F200895FB01DC0102C005900D92415020
:104460005040D8F70895FB01DC018D91059080192B
:104470000110D9F3990B0895FB01DC014150504024
:1044800048F005900D920020C9F701C01D924150DF
:104490005040E0F70895FB01DC0102C001900D924D
:1044A00041505040D8F70895AEE0B0E0E9E5F2E2BF
:1044B000F2C20D891E898F89988D2EE02C83098385
:1044C0001A8397FF02C080E090E801978D839E8356
:1044D000AE01455E5F4F698D7A8DCE01019611D098
:1044E0004D815E8157FD0AC02F81388542175307E1
:1044F0000CF49A01F801E20FF31F10822E96E4E00B
:10450000E3C2ACE0B0E0E6E8F2E2B7C27C016B01E6
:104510008A01FC0116821782838181FFB0C1CE011E
:1045200001964C01F7019381F60193FD859193FF6C
:1045300081916F01882309F49EC1853239F493FD7E
:10454000859193FF81916F01853221F4B70190E04D
:10455000E8D1E8CF512C312C20E02032A0F48B326E
:1045600069F030F4803259F0833269F420612CC054
:104570008D3239F0803339F4216026C02260246006
:1045800023C0286021C027FD27C030ED380F3A3006
:1045900078F426FF06C0FAE05F9E300D1124532EFA
:1045A00013C08AE0389E300D1124332E20620CC0D7
:1045B0008E3221F426FD5FC1206406C08C3611F4D2
:1045C000206802C0883641F4F60193FD859193FF7F
:1045D00081916F018111C1CF982F9F7D95549330A8
:1045E00028F40C5F1F4FFFE3F9830DC0833631F0D1
:1045F000833771F0833509F057C021C0F8018081FD
:1046000089830E5F1F4F44244394512C540114C0DE
:104610003801F2E06F0E711CF801A080B18026FF16
:1046200003C0652D70E002C06FEF7FEFC5012C87DE
:104630006DD12C0183012C852F77222E16C03801D5
:10464000F2E06F0E711CF801A080B18026FF03C05C
:10465000652D70E002C06FEF7FEFC5012C874BD155
:104660002C012C852068222E830123FC19C0832D68
:1046700090E048165906A0F4B70180E290E051D1CD
:104680003A94F5CFF50127FC859127FE81915F01D2
:10469000B70190E046D131103A94F1E04F1A510839
:1046A0004114510479F7DEC0843611F0893631F5B2
:1046B000F80127FF07C060817181828193810C5FBF
:1046C0001F4F08C060817181882777FD8095982FE2
:1046D0000E5F1F4F2F76B22E97FF09C090958095E1
:1046E000709561957F4F8F4F9F4F2068B22E2AE0C3
:1046F00030E0A40148D1A82EA81843C0853729F47A
:104700002F7EB22E2AE030E025C0F22FF97FBF2E97
:104710008F36C1F018F4883579F0ADC0803719F0C4
:10472000883721F0A8C02F2F2061B22EB4FE0DC013
:104730008B2D8460B82E09C024FF0AC09F2F96607D
:10474000B92E06C028E030E005C020E130E002C00C
:1047500020E132E0F801B7FE07C0608171818281FB
:1047600093810C5F1F4F06C06081718180E090E0F3
:104770000E5F1F4FA40107D1A82EA818FB2DFF77AD
:10478000BF2EB6FE0BC02B2D2E7FA51450F4B4FE09
:104790000AC0B2FC08C02B2D2E7E05C07A2C2B2D12
:1047A00003C07A2C01C0752C24FF0DC0FE01EA0D58
:1047B000F11D8081803311F4297E09C022FF06C0DB
:1047C0007394739404C0822F867809F0739423FD48
:1047D00012C020FF06C05A2C731418F4530C57183B
:1047E000732C731460F4B70180E290E02C8799D0A9
:1047F00073942C85F6CF731410F4371801C0312C44
:1048000024FF11C0B70180E390E02C878AD02C856B
:1048100022FF16C021FF03C088E590E002C088E7B0
:1048200090E0B7010CC0822F867851F021FD02C0C4
:1048300080E201C08BE227FD8DE2B70190E071D0EC
:10484000A51430F4B70180E390E06BD05A94F8CF10
:10485000AA94F401EA0DF11D8081B70190E061D0C6
:10486000A110F6CF332009F45DCEB70180E290E0CD
:1048700058D03A94F7CFF7018681978102C08FEF25
:104880009FEF2C96E2E112C1E0ECF1E0A785A7FDD5
:10489000FDCFA485A860A4876050704FFCCDDC01DB
:1048A000CB0102C02D9105D041505040D8F708955A
:1048B000262FE0ECF1E0378537FDFDCF3485377FDB
:1048C0003487378531FF09C036E3328738ED34BF8E
:1048D00031E03387378537FDFDCF33E3328780837F
:1048E00091831282248325E3228728ED31E024BFBF
:1048F000338701960895FC010590615070400110C6
:10490000D8F7809590958E0F9F1F0895FC016150F8
:10491000704001900110D8F7809590958E0F9F1FE1
:1049200008950F931F93CF93DF93182F092FEB0157
:104930008B8181FD03C08FEF9FEF20C082FF10C0ED
:104940004E815F812C813D81421753077CF4E881C1
:10495000F9819F012F5F3F4F28833983108306C061
:10496000E885F985812F0995892B29F72E813F81CB
:104970002F5F3F4F2E833F83812F902FDF91CF9169
:104980001F910F910895FA01AA27283051F1203183
:1049900081F1E8946F936E7F6E5F7F4F8F4F9F4FD3
:1049A000AF4FB1E03ED0B4E03CD0670F781F891F15
:1049B0009A1FA11D680F791F8A1F911DA11D6A0FE3
:1049C000711D811D911DA11D20D009F468943F9196
:1049D0002AE0269F11243019305D3193DEF6CF0195
:1049E0000895462F4770405D4193B3E00FD0C9F75B
:1049F000F6CF462F4F70405D4A3318F0495D31FDC8
:104A00004052419302D0A9F7EACFB4E0A69597951A
:104A1000879577956795BA95C9F7009761057105F0
:104A200008959B01AC010A2E06945795479537953A
:104A30002795BA95C9F7620F731F841F951FA01D94
:104A40000895052E97FB16F400940FD057FD05D05E
:104A500045D007FC02D046F408C0509540953095EB
:104A600021953F4F4F4F5F4F0895909580957095DA
:104A700061957F4F8F4F9F4F08952F923F924F9296
:104A80005F926F927F928F929F92AF92BF92CF92DE
:104A9000DF92EF92FF920F931F93CF93DF93CDB7E7
:104AA000DEB7CA1BDB0BCDBFDEBF09942A8839886D
:104AB00048885F846E847D848C849B84AA84B984B6
:104AC000C884DF80EE80FD800C811B81AA81B981C2
:104AD000CE0FD11DCDBFDEBFED010895A1E21A2E8C
:104AE000AA1BBB1BFD010DC0AA1FBB1FEE1FFF1F92
:104AF000A217B307E407F50720F0A21BB30BE40BE2
:104B0000F50B661F771F881F991F1A9469F7609528
:104B10007095809590959B01AC01BD01CF010895E2
:044B2000F894FFCF37
:104B2400140083100000010410000001820800003A
:104B3400010000000000000000000000010000006F
:104B4400000100010000000000000001000101015B
:104B54000101010001000100000001010001010147
:104B64000001010100000001000001000101000139
:104B74000000000202000002000202020200000221
:104B84000000000404000004000404040400000401
:104B940000080808000000080000080008080008D1
:104BA4000000001010000010001010101000001081
:024BB4000000FF
:00000001FF
